S0110000525820616E642054582E737265634A
S11300000C943D000C9465000C9465000C94650000
S11300100C9465000C9465000C9465000C949E028D
S11300200C9465000C9465000C9465000C946500B8
S11300300C9465000C9465000C94D9000C94650034
S11300400C9465000C9465000C9465000C94650098
S11300500C9465000C9465000C9465000C94650088
S11300600C9465000C94650050696E672E2E2E0A60
S11300700000FD006D040401740411241FBECFEFC1
S1130080D8E0DEBFCDBF11E0A0E0B1E0E2E9F6E1E7
S113009002C005900D92A032B107D9F721E0A0E289
S11300A0B1E001C01D92A53DB207E1F710E0CBE33A
S11300B0D0E004C02197FE010E94FE06C933D10797
S11300C0C9F70E9407040C943C0B0C940000EF92B7
S11300D0FF920F931F93FC017683658350874783B8
S11300E03287218714870387F686E5861F910F914F
S11300F0FF90EF900895EF92FF920F931F93019753
S1130100A1F46F3F7F4F89F40F2EF6E4EF2EF12C0C
S1130110F02D07E410E02EE630E045E450E064E41E
S113012070E080E291E00E9467001F910F91FF90C0
S1130130EF900895FC01848181111FC0F89481E03F
S11301408823D1F081E08483A581B6818C9182607B
S11301508C93A781B0858C9182608C93A185B285A4
S11301608C9182608C93A585B6851C92A385B485F9
S113017087EC8C9380E0E4CF78940895FC018FB7EA
S1130180F89491E0992331F0408151816281738127
S113019090E0F8CF8FBFCB01BA0108950E94BE0052
S11301A028EE33E040E050E00E94C806CA01B901DD
S11301B008951F920F920FB60F9211248F939F935D
S11301C0AF93BF93EF93FF93E0E2F1E080819181DD
S11301D0A281B3818C599F4FAF4FBF4F80839183CE
S11301E0A283B383FF91EF91BF91AF919F918F91C0
S11301F00F900FBE0F901F9018956FEF7FEF81E067
S113020090E00E947B0008956FEF7FEF80E090E024
S11302100E947B000895CF92EF92FF920F931F9359
S1130220FC011093800100937F01F0927E01E09223
S11302307D01C0927C017093390160933801509321
S11302403701409336012093350180EB90E0918390
S1130250808381EB90E09383828380E790E09583B1
S1130260848383EB90E09783868382EB90E091878D
S113027080871F910F91FF90EF90CF900895109277
S1130280800110927F0110927E0110927D011092E4
S11302907C011092390110923801109237011092AA
S11302A036011092350108958F929F92AF92BF92BA
S11302B0CF92DF92EF92FF920F931F93CF93DF932E
S11302C0EC016A017B0120917C01E0917D01F091B8
S11302D07E01309751F0308181E090E002C0880FB8
S11302E0991F2A95E2F7832B808320917C01E0916A
S11302F07F01F0918001309751F0308181E090E0EE
S113030002C0880F991F2A95E2F7832B80833091CE
S11303103501E0913801F0913901309759F020818D
S113032081E090E002C0880F991F3A95E2F780952A
S113033082238083F89481E0882309F44EC0E88105
S1130340F981808182608083EA81FB81808182607F
S113035080830E811F81C701B6010E94950520E0AC
S113036030E040EC51E40E9447069B01AC0160E0A0
S113037074E284E79BE40E94ED0420E030E040E86E
S11303805FE30E947B044B015C0120E030E0A901A3
S11303900E94E80488235CF420E030E040E05FE35E
S11303A0C501B4010E947B040E945F050AC020E0DD
S11303B030E040E05FE3C501B4010E947C040E9488
S11303C05F05F8016083E885F9851082EC81FD8181
S11303D080818260808380E0AFCF7894DF91CF9179
S11303E01F910F91FF90EF90DF90CF90BF90AF904F
S11303F09F908F9008954FB7F89421E080E090E0AB
S11304002223B9F020913B0130E0205C3F4F8091E2
S11304103A01281B31092F733078332334F42150E7
S11304203109206C3F6F2F5F3F4F822F932F20E0C5
S1130430E7CF4FBF089590913B0180913A019817FF
S113044081F080913A018F7380933A01E0913A01EF
S113045081E08E0F80933A01F0E0E45CFE4F8081EE
S1130460089580E008958091820190E001968F7351
S11304709078992324F40197806C9F6F0196909152
S113048081018917E1F3809182018F738093820146
S1130490E091820181E08E0F80938201F0E0ED57BC
S11304A0FE4F608308950F931F93CF93DF938C01C6
S11304B0EB016881662329F02196C8010E9433026A
S11304C0F8CFDF91CF911F910F9108950F931F9350
S11304D0CF93DF93CDB7DEB761E070E080E490E0C6
S11304E00E9404078C019E01255F3F4F49855A8570
S11304F060E470E00E944808B8018F8198850E94EA
S11305005302C8010E94B807DF91CF911F910F9148
S113051008950F931F93CF93DF938C01EB01FE019A
S11305208491882331F021966491C8010E9433029A
S1130530F6CFDF91CF911F910F9108951F920F92E3
S11305400FB60F9211242F933F934F935F936F93A2
S11305507F938F939F93AF93BF93EF93FF93909168
S1130560820180918101981709F48CC08091070160
S1130570815080930701811185C0809134018930B5
S113058018F4813028F019C0893009F44DC06FC0C7
S113059040917C01E0917D01F0917E01309709F456
S11305A066C0908121E030E002C0220F331F4A95DB
S11305B0E2F72095292320835AC0E0918101F0E0DD
S11305C0ED57FE4F9081917020917C01E0917D0167
S11305D0F0917E013097E9F0913079F0D0F4908178
S11305E041E050E0BA0102C0660F771F2A95E2F796
S11305F09B012095292320830CC0908141E050E089
S1130600BA0102C0660F771F2A95E2F79B01292BD6
S11306102083E0918101F0E0ED57FE4F208130E02E
S113062035952795208323C090917C01E0917D012D
S1130630F0917E01309751F0408121E030E002C01A
S1130640220F331F9A95E2F7242B208320918101F6
S113065030E02F5F3F4F2F733078332334F4215031
S11306603109206C3F6F2F5F3F4F2093810190E051
S113067001966AE070E00E94B4068093340183E03E
S11306808093070180913301882319F1809132010D
S1130690815080933201811172C01092330181E044
S11306A080930601E0913B01F0E080913101E45C2C
S11306B0FE4F808380913B0190E001968F73907888
S11306C0992324F40197806C9F6F019680933B01DA
S11306D056C090910601992301F120913501E091D2
S11306E03601F0913701309741F0808190E002C0EB
S11306F0959587952A95E2F78170811140C01092F3
S113070006011092310184E08093320188E08093E5
S1130710300181E080932F0132C0809132018150F9
S11307208093320181112BC093E090933201209188
S11307303501E0913601F0913701309741F0808125
S113074090E002C0959587952A95E2F781708823F9
S113075039F09091310180912F01892B80933101DF
S113076080912F01880F80932F0180913001815057
S113077080933001811103C081E080933301FF91A4
S1130780EF91BF91AF919F918F917F916F915F9105
S11307904F913F912F910F900FBE0F901F9018957E
S11307A0AF92BF92CF92EF92FF920F931F93CF938A
S11307B0DF93EC015B010197B9F46F3F7F4FA1F424
S11307C00F2EF3E0CF2EF02D0F2EFBE2EF2EF12CA7
S11307D0F02D0AE210E022E049E250E06AE270E023
S11307E087EC91E00E940B01CD2B39F4AB20A0944F
S11307F021F487EC91E00E943F01DF91CF911F919A
S11308000F91FF90EF90CF90BF90AF90089580E24A
S113081091E00E949A0040E855E260E070E087ECC5
S113082091E00E94540168E071E087EC91E00E943D
S1130830530280E291E00E94CE000091C301109126
S1130840C4012091C5013091C601DC01CB01801B9C
S1130850910BA20BB30B883E9340A105B10560F147
S113086080E291E00E94CE009F938F937F936F93D9
S113087086E191E09F938F9387EC91E09F938F9310
S11308800E94660268E670E087EC91E00E948902AB
S113089080E291E00E94CE006093C3017093C40192
S11308A08093C5019093C6018DB79EB708960FB685
S11308B0F8949EBF0FBE8DBF87EC91E00E94FB01B0
S11308C0892B09F4B6CF87EC91E00E941B02682FB4
S11308D087EC91E00E943302ACCF6FEF7FEF81E0B1
S11308E090E00E94D00308956FEF7FEF80E090E0E6
S11308F00E94D00308955058BB27AA270E9493044E
S11309000C940D060E94FF0538F00E94060620F0A4
S113091039F49F3F19F426F40C94FC050EF4E09589
S1130920E7FB0C94F605E92F0E941E0658F3BA174C
S1130930620773078407950720F079F4A6F50C94F1
S113094040060EF4E0950B2EBA2FA02D0B01B90131
S113095090010C01CA01A0011124FF27591B99F031
S1130960593F50F4503E68F11A16F040A22F232F3D
S1130970342F4427585FF3CF469537952795A7958D
S1130980F0405395C9F77EF41F16BA0B620B730B34
S1130990840BBAF09150A1F0FF0FBB1F661F771FA5
S11309A0881FC2F70EC0BA0F621F731F841F48F45A
S11309B0879577956795B795F7959E3F08F0B0CFE3
S11309C09395880F08F09927EE0F979587950895CA
S11309D00E94D20508F481E008950E9401050C9458
S11309E00D060E94060658F00E94FF0540F029F407
S11309F05F3F29F00C94F60551110C9441060C94B8
S1130A00FC050E941E0668F39923B1F3552391F364
S1130A10951B550BBB27AA2762177307840738F069
S1130A209F5F5F4F220F331F441FAA1FA9F335D0C6
S1130A300E2E3AF0E0E832D091505040E695001C7A
S1130A40CAF72BD0FE2F29D0660F771F881FBB1F34
S1130A50261737074807AB07B0E809F0BB0B802D12
S1130A60BF01FF2793585F4F3AF09E3F510578F03E
S1130A700C94F6050C9441065F3FE4F3983ED4F3DE
S1130A80869577956795B795F7959F5FC9F7880F12
S1130A90911D9695879597F90895E1E0660F771F64
S1130AA0881FBB1F621773078407BA0720F0621BF5
S1130AB0730B840BBA0BEE1F88F7E09508950E9420
S1130AC066056894B1110C94410608950E942606A7
S1130AD088F09F5798F0B92F9927B751B0F0E1F0FB
S1130AE0660F771F881F991F1AF0BA95C9F714C0AB
S1130AF0B13091F00E944006B1E008950C94400694
S1130B00672F782F8827B85F39F0B93FCCF38695E3
S1130B1077956795B395D9F73EF490958095709540
S1130B2061957F4F8F4F9F4F0895E89409C097FBBD
S1130B303EF490958095709561957F4F8F4F9F4FB0
S1130B409923A9F0F92F96E9BB279395F6958795F4
S1130B5077956795B795F111F8CFFAF4BB0F11F4B7
S1130B6060FF1BC06F5F7F4F8F4F9F4F16C088235E
S1130B7011F096E911C0772321F09EE8872F762F94
S1130B8005C0662371F096E8862F70E060E02AF0D5
S1130B909A95660F771F881FDAF7880F96958795C1
S1130BA097F90895990F0008550FAA0BE0E8FEEF96
S1130BB016161706E807F907C0F012161306E4071D
S1130BC0F50798F0621B730B840B950B39F40A2616
S1130BD061F0232B242B252B21F408950A2609F4F4
S1130BE0A140A6958FEF811D811D089597F99F67F8
S1130BF080E870E060E008959FEF80EC08950024A1
S1130C000A941616170618060906089500240A946D
S1130C1012161306140605060895092E0394000CF3
S1130C2011F4882352F0BB0F40F4BF2B11F460FF82
S1130C3004C06F5F7F4F8F4F9F4F089557FD9058AB
S1130C40440F551F59F05F3F71F04795880F97FB8C
S1130C50991F61F09F3F79F0879508951216130646
S1130C601406551FF2CF4695F1DF08C01616170675
S1130C701806991FF1CF86957105610508940895AA
S1130C80E894BB2766277727CB0197F908950E943C
S1130C905A060C940D060E94FF0538F00E940606C1
S1130CA020F0952311F00C94F6050C94FC05112406
S1130CB00C9441060E941E0670F3959FC1F3950F94
S1130CC050E0551F629FF001729FBB27F00DB11DCC
S1130CD0639FAA27F00DB11DAA1F649F6627B00D5C
S1130CE0A11D661F829F2227B00DA11D621F739F45
S1130CF0B00DA11D621F839FA00D611D221F749F53
S1130D003327A00D611D231F849F600D211D822F99
S1130D10762F6A2F11249F5750409AF0F1F08823C0
S1130D204AF0EE0FFF1FBB1F661F771F881F9150ED
S1130D305040A9F79E3F510580F00C94F6050C94A1
S1130D4041065F3FE4F3983ED4F386957795679523
S1130D50B795F795E7959F5FC1F7FE2B880F911D17
S1130D609695879597F9089597FB072E16F40094A6
S1130D7007D077FD09D00E94EA0607FC05D03EF4AF
S1130D80909581959F4F0895709561957F4F089533
S1130D90A1E21A2EAA1BBB1BFD010DC0AA1FBB1F7B
S1130DA0EE1FFF1FA217B307E407F50720F0A21BED
S1130DB0B30BE40BF50B661F771F881F991F1A945A
S1130DC069F760957095809590959B01AC01BD0184
S1130DD0CF010895AA1BBB1B51E107C0AA1FBB1F6B
S1130DE0A617B70710F0A61BB70B881F991F5A95B3
S1130DF0A9F780959095BC01CD010895EE0FFF1FD2
S1130E000590F491E02D09940F931F93CF93DF93F2
S1130E10869F8001879F100D969F100D1124C80195
S1130E200E942007EC01009729F0A80160E070E01F
S1130E300E944108CE01DF91CF911F910F91089537
S1130E400F931F93CF93DF938230910510F482E0C8
S1130E5090E0E091D301F091D40120E030E0A0E0F3
S1130E60B0E0309719F14081518102811381481714
S1130E705907C8F08417950769F4109731F0129652
S1130E800C93129713961C9327C00093D3011093CD
S1130E90D40122C02115310519F04217530718F463
S1130EA09A01BD01EF01DF01F801DBCF2115310506
S1130EB0F9F0281B390B2430310580F48A819B8199
S1130EC06115710521F0FB019383828304C0909323
S1130ED0D4018093D301FE01329644C0FE01E20F97
S1130EE0F31F8193919322503109398328833AC0A7
S1130EF02091D1013091D201232B41F420910201A0
S1130F00309103013093D2012093D101209100014B
S1130F10309101012115310541F42DB73EB74091BF
S1130F20040150910501241B350BE091D101F0918E
S1130F30D201E217F307A0F42E1B3F0B2817390741
S1130F4078F0AC014E5F5F4F2417350748F04E0F21
S1130F505F1F5093D2014093D1018193919302C0BA
S1130F60E0E0F0E0CF01DF91CF911F910F91089560
S1130F70CF93DF93009709F481C0FC013297138269
S1130F801282A091D301B091D401109781F42081F1
S1130F903181820F931F2091D1013091D201281702
S1130FA0390751F5F093D201E093D10167C0ED0107
S1130FB020E030E0CE17DF0740F44A815B819E01D8
S1130FC041155105F1F0EA01F5CFD383C283408185
S1130FD05181840F951FC817D90759F488819981C5
S1130FE0840F951F0296918380838A819B819383CA
S1130FF082832115310529F4F093D401E093D301C0
S11310003DC0E901FB83EA8349915991C40FD51F7F
S1131010EC17FD0761F480819181840F951F02967E
S1131020E90199838883828193819B838A83E0E0A9
S1131030F0E012968D919C911397009719F0FD01A1
S1131040DC01F7CF8D919C9111979D012E5F3F4F4D
S1131050820F931F2091D1013091D20128173907B3
S113106069F4309729F41092D4011092D30102C08C
S113107013821282B093D201A093D101DF91CF9158
S11310800895DC0101C06D9341505040E0F708958C
S1131090AEE0B0E0EEE4F8E00C94130B8C01FA013E
S11310A086E08C831A83098377FF02C060E070E8CE
S11310B0CB0101979E838D83A901BF01CE010196C7
S11310C00E9474084D815E8157FD0AC02F813885C6
S11310D0421753070CF49A01F801E20FF31F108230
S11310E02E96E4E00C942F0BABE0B0E0EAE7F8E0D6
S11310F00C94050B6C017B018A01FC01178216829A
S1131100838181FFCCC1CE0101963C01F60193811C
S1131110F70193FD859193FF81917F01882309F461
S1131120BAC1853239F493FD859193FF81917F0192
S1131130853229F4B60190E00E946B0AE7CF912C26
S1131140212C312CFFE1F315D8F08B3279F038F4EF
S1131150803279F08332A1F4232D20611DC08D32B9
S113116061F0803369F4232D216016C0832D8260E1
S1131170382EE32DE4603E2E2AC0F32DF8601DC006
S113118037FC2DC020ED280F2A3040F08E32B9F400
S113119036FC81C1232D2064322E19C036FE06C0D0
S11311A08AE0989E200D1124922E11C0EAE02E9E12
S11311B0200D1124222EF32DF0623F2E08C08C3610
S11311C021F4832D8068382E02C0883641F4F7015B
S11311D093FD859193FF81917F018111B3CF982F66
S11311E09F7D9554933028F40C5F1F4F9FE39983A0
S11311F00DC0833631F0833771F0833509F059C05F
S113120021C0F801808189830E5F1F4F8824839455
S1131210912C530113C02801F2E04F0E511CF80128
S1131220A080B18036FE03C0692D70E002C06FEF6C
S11312307FEFC5010E94600A4C018201F32DFF7704
S11312403F2E16C0280122E0420E511CF801A08056
S1131250B18036FE03C0692D70E002C06FEF7FEFEE
S1131260C5010E94550A4C01F32DF0683F2E8201FE
S113127033FC1BC0822D90E088169906B0F4B601A9
S113128080E290E00E946B0A2A94F4CFF50137FCC7
S1131290859137FE81915F01B60190E00E946B0A4F
S11312A021102A9421E0821A91088114910471F783
S11312B0E8C0843611F0893641F5F80137FE07C0DD
S11312C060817181828193810C5F1F4F08C06081AE
S11312D07181072E000C880B990B0E5F1F4FF32DA5
S11312E0FF763F2E97FF09C0909580957095619584
S11312F07F4F8F4F9F4FF0683F2E2AE030E0A301CD
S11313000E94A70A882E861845C0853731F4232DFC
S11313102F7EB22E2AE030E025C0932D997FB92E7E
S11313208F36C1F018F4883579F0B5C0803719F0DC
S1131330883721F0B0C0E92FE061BE2EB4FE0DC0A5
S1131340FB2DF460BF2E09C034FE0AC0292F26608D
S1131350B22E06C028E030E005C020E130E002C033
S113136020E132E0F801B7FE07C06081718182811B
S113137093810C5F1F4F06C06081718180E090E013
S11313800E5F1F4FA3010E94A70A882E8618FB2D0B
S1131390FF773F2E36FE0DC0232D2E7FA22E8914FB
S11313A058F434FE0BC032FC09C0832D8E7EA82E67
S11313B005C0B82CA32C03C0B82C01C0B92CA4FEC2
S11313C00FC0FE01E80DF11D8081803321F49A2DB8
S11313D0997EA92E09C0A2FE06C0B394B39404C09A
S11313E08A2D867809F0B394A3FC11C0A0FE06C030
S11313F0B21488F4280C922C9B180EC0B21460F41A
S1131400B60180E290E00E946B0AB394F7CFB21465
S113141018F42B1802C0982C212CA4FE10C0B6017D
S113142080E390E00E946B0AA2FE17C0A1FC03C0F7
S113143088E790E002C088E590E0B6010CC08A2DF0
S1131440867859F0A1FE02C08BE201C080E2A7FCBD
S11314508DE2B60190E00E946B0A891438F4B6015B
S113146080E390E00E946B0A9A94F7CF8A94F30188
S1131470E80DF11D8081B60190E00E946B0A811095
S1131480F5CF222009F442CEB60180E290E00E941A
S11314906B0A2A94F6CFF6018681978102C08FEFFA
S11314A09FEF2B96E2E10C94210BFC010590615017
S11314B070400110D8F7809590958E0F9F1F089566
S11314C0FC016150704001900110D8F7809590950F
S11314D08E0F9F1F08950F931F93CF93DF93FB01EC
S11314E0238121FD03C08FEF9FEF2CC022FF16C084
S11314F046815781248135814217530744F4A081E2
S1131500B1819D012F5F3F4F318320838C932681CE
S113151037812F5F3F4F3783268314C08B01EC0143
S1131520FB010084F185E02D0995892BE1F6D801B2
S113153016968D919C911797019617969C938E936E
S11315401697CE01DF91CF911F910F910895FA0163
S1131550AA27283051F1203181F1E8946F936E7FEE
S11315606E5F7F4F8F4F9F4FAF4FB1E03ED0B4E0DF
S11315703CD0670F781F891F9A1FA11D680F791F20
S11315808A1F911DA11D6A0F711D811D911DA11D31
S113159020D009F468943F912AE0269F1124301941
S11315A0305D3193DEF6CF010895462F4770405DDC
S11315B04193B3E00FD0C9F7F6CF462F4F70405D8B
S11315C04A3318F0495D31FD4052419302D0A9F7E6
S11315D0EACFB4E0A6959795879577956795BA95E0
S11315E0C9F700976105710508959B01AC010A2EA6
S11315F006945795479537952795BA95C9F7620F7D
S1131600731F841F951FA01D08952F923F924F9220
S11316105F926F927F928F929F92AF92BF92CF927E
S1131620DF92EF92FF920F931F93CF93DF93CDB787
S1131630DEB7CA1BDB0B0FB6F894DEBF0FBECDBFFF
S113164009942A88398848885F846E847D848C84D0
S11316509B84AA84B984C884DF80EE80FD800C81D9
S11316601B81AA81B981CE0FD11D0FB6F894DEBFBC
S11316700FBECDBFED01089510E0CBE3D0E004C070
S1131680FE010E94FE062196CD33D107C9F7F894D6
S1051690FFCF86
S11316920000D5012000010348656C6C6F20576F70
S11316A2726C64210A000A5B256C755D3A200000A5
S9030000FC
